:0A00D8000808FF930183C7EFFFFF44
:1000B500C2B6E4FDFCC2B5EF30E004D2B48002C2A2
:1000C500B4EFC313FFD2B50DBD00010CED64084CB0
:0200D50070E3D6
:0100D7002206
:10008F007E80E4FBFA74082BF8E6FF1200B5AF068A
:10009F001200B5EEC313FED2B60BBB00010AEB6420
:0600AF00084A70E180DA4E
:03000000020003F8
:0C000300787FE4F6D8FD75810F02004AFA
:10000F0002008FE493A3F8E493A34003F68001F278
:10001F0008DFF48029E493A3F85407240CC8C333F2
:10002F00C4540F4420C8834004F456800146F6DFC1
:10003F00E4800B01020408102040809000D8E47E79
:10004F00019360BCA3FF543F30E509541FFEE493B6
:10005F00A360010ECF54C025E060A840B8E493A37D
:10006F00FAE493A3F8E493A3C8C582C8CAC583CAA8
:10007F00F0A3C8C582C8CAC583CADFE9DEE780BE60
:0100E200001D
:00000001FF
