:1000D4003F065B4F666D7D077F6F777C395E797174
:0900E4007638373E735C400000E1
:0800F9007F247ED9DEFEDFFC4E
:0101010022DB
:1000AC007C007D0A1200037580FFD2A77580FEC20A
:1000BC00A7D2A6AE04AF0574D42FF58274003EF51A
:0700CC0083E493F580C2A656
:0100D300220A
:10005800E4FBFAFFFE1200AC20B0241200F920B035
:100068001E0BBB00010AD3EB9409EA64809480401C
:10007800047A007B09AF03AE021200AC30B0FD2059
:10008800B1D61200F920B1D0EB1B70011AC3EA6493
:100098008094805003E4FAFBAF03AE021200AC2058
:0400A800B1B680FB72
:030000000200ED0E
:0C00ED00787FE4F6D8FD7581070200580A
:10000300BC000BBE0029EF8DF084FFADF022E4CCE1
:10001300F875F008EF2FFFEE33FEEC33FCEE9DECAA
:10002300984005FCEE9DFE0FD5F0E9E4CEFD22EDF0
:10003300F8F5F0EE8420D21CFEADF075F008EF2F3A
:10004300FFED33FD4007985006D5F0F222C398FD2B
:050053000FD5F0EA22C8
:00000001FF
