:1000E5003F065B4F666D7D077F6F777C395E797163
:0900F5007638373E735C400000D0
:0800FE00F583E493F580C2A62E
:080106007F097EF4DEFEDFFC40
:01010E0022CE
:04000300AB07AA0697
:100007007C007D641200908F828E837C007D64AFBC
:1000170003AE021200907E007F0ACFCDCFCECCCEAA
:100027001200908E088F09AE02AF037C007D0A1282
:1000370000907580FFD2A77580FEC2A7D2A6AE83B7
:10004700AF8274E52FF58274003E1200FE7580FFC3
:10005700D2A77580FDC2A7D2A674E52509F58274DB
:100067000035081200FE7580FFD2A77580FBC2A776
:10007700D2A6AE04AF0574E52FF58274003EF58372
:09008700E493F580C2A602010613
:09011B007F417E0112000380F710
:0300000002010FEB
:0C010F00787FE4F6D8FD75810902011B21
:10009000BC000BBE0029EF8DF084FFADF022E4CC54
:1000A000F875F008EF2FFFEE33FEEC33FCEE9DEC1D
:1000B000984005FCEE9DFE0FD5F0E9E4CEFD22ED63
:1000C000F8F5F0EE8420D21CFEADF075F008EF2FAD
:1000D000FFED33FD4007985006D5F0F222C398FD9E
:0500E0000FD5F0EA223B
:00000001FF
