:100168003F065B4F666D7D077F6F777C395E7971DF
:090178007638373E735C4000004C
:04018A000208001651
:080181007F097EF4DEFEDFFCC5
:010189002253
:1000030075B0F0E5B064F06067120181E5B064F0AB
:10001300605EAFB0EF2490602424C0601824E060D9
:100023000C24F0701E750800750901801675080010
:10003300750902800E7508007509038006750800AE
:1000430075090475B00FAFB0EF24F9601324FC6099
:100053000B24FE600314801374048006740880026A
:10006300740C2509F509E43508F508E5B0B40FFB70
:1000730075B0FFE5B0F4603D120181E5B0F4603581
:10008300AFB0EF2409602324FC601724FE600B1437
:10009300701E750800750910801675080075091122
:1000A300800E75080075091280067508007509131E
:0600B300E5B0B4FFFB22E2
:100145007580FFD2A77580FEC2A7120003D2A674E0
:10015500682509F58274013508F583E493F580C2B5
:03016500A680E78A
:030000000200B942
:0C00B900787FE4F6D8FD75810902010093
:1000C500020145E493A3F8E493A34003F68001F20B
:1000D50008DFF48029E493A3F85407240CC8C3333C
:1000E500C4540F4420C8834004F456800146F6DF0B
:1000F500E4800B010204081020408090018AE47E10
:10010500019360BCA3FF543F30E509541FFEE493FF
:10011500A360010ECF54C025E060A840B8E493A3C6
:10012500FAE493A3F8E493A3C8C582C8CAC583CAF1
:10013500F0A3C8C582C8CAC583CADFE9DEE780BEA9
:01018E000070
:00000001FF
